:1000000012C019C018C017C016C015C014C013C044
:1000100012C011C010C00FC00EC00DC00CC00BC06C
:100020000AC009C008C011241FBECFE5D4E0DEBF5E
:10003000CDBF02D029C0E4CF8FEF81BB14BA12BA72
:1000400085E886B985E087B9969A2FE38DE093E03D
:10005000215080409040E1F700C0000096982FE3C7
:100060008DE093E0215080409040E1F700C0000017
:10007000369A3699FECF84B195B18C3B924010F4FC
:0C0080009698F6CF969AF4CFF894FFCF34
:00000001FF
