S00F0000456173794144432E73726563BB
S113000012C019C018C017C016C015C014C013C040
S113001012C011C010C00FC00EC00DC00CC00BC068
S11300200AC009C008C011241FBECFE5D4E0DEBF5A
S1130030CDBF61D08EC1E4CF87E886B9089527B1DA
S1130040207F27B98230910579F02CF40097C1F014
S1130050019741F013C08430910559F03CF00597A5
S113006051F00CC0389A0CC0399A0AC0389A399A9F
S113007007C03A9A05C0389A3A9A02C0389A3A9A0E
S1130080369A3699FECF84B195B10895CF93DF9314
S1130090EC01ACD061E081E0E4D0CE014096F5D033
S11300A061E086E0DED0CE010C96EFD061E08BE01B
S11300B0D8D0CE010896E9D062E081E0D2D0CE015A
S11300C00496E3D062E086E0CCD0CE01DED062E0DC
S11300D08BE0C7D0CE014496D8D0DF91CF9108955C
S11300E0B99A8FB580688FBD8FB583608FBD8EB58B
S11300F082608EBD0895CF93DF93CDB7DEB7A4970A
S11301000FB6F894DEBF0FBECDBF84E390E0CBD032
S113011076D092DFE5DF00E010E0C12CD12C21C0C5
S1130120C8018DDFF801EE0FFF1F21E030E02C0F36
S11301303D1FE20FF31F918F808F7801EE0CFF1C9F
S1130140EE0CFF1CE20EF31E4AE050E0B701C4D0EF
S1130150C701B4D00530110511F08BE3ABD00F5FAC
S11301601F4F06301105E4F28DE0A4D08AE0A2D03E
S11301708BA19CA19BBD8ABDCE01019687DF3FE97F
S113018086E891E0315080409040E1F700C00000E3
S11301900C2D1D2DE6CF939A85E38A95F1F7000087
S11301A09398089592B39F7092BB92B3807F982BDB
S11301B092BBF1DF0895CF93C82F929AF3DF8C2F6F
S11301C08295807FEFDF8AE78A95F1F700C0CF91AF
S11301D00895CF93C82F9298E5DF8C2F8295807F66
S11301E0E1DF80E78A95F1F7CF91089581E0F1DFAF
S11301F08FE99FE00197F1F700C00000089581B3F3
S11302008C6F81BB82B3837082BB8FE295E70197C9
S1130210F1F700C0000080E3C5DF8FE097E20197AB
S1130220F1F700C00000B7DF8FEC97E00197F1F71A
S113023000C00000B0DF8FEC97E00197F1F700C039
S1130240000080E2AFDF8FE097E20197F1F700C092
S1130250000088E2BEDF8CE0BCDF86E0BADFC6DFE8
S11302600895623059F018F4613031F00895633024
S113027039F0643039F00895805805C0805403C0C3
S1130280805701C08053A5DF0895CF93DF93EC011D
S11302908881882329F021968EDF89918111FCCFF2
S11302A0DF91CF91089589B990BD88E18AB986E834
S11302B080BD08955D9BFECF8CB90895CF93DF93E5
S11302C0EC018881882329F02196F4DF899181113A
S11302D0FCCFDF91CF9108954532510518F4423097
S11302E008F004C0FB011082CB010895BB274A30FB
S11302F031F4992322F4BDE2909581959F4F01C07A
S1130300BB27FB015527AA27880F991FAA1FA417EB
S113031010F0A41B83955051B9F7A05DAA3308F0DF
S1130320A95DA193009779F7B111B1931192CB0113
S113033000C0DC01FC01672F71917723E1F732974C
S113034004C07C916D9370836291AE17BF07C8F3AC
S10903500895F894FFCFAC
S9030000FC
