:100000001EC038C037C036C035C034C033C032C05F
:1000100031C030C02FC04BC076C02CC02BC02AC00E
:1000200029C028C027C0537472696E672073746F2B
:1000300072656420696E20464C4153480A001124C1
:100040001FBECFE5D4E0DEBFCDBF10E0A0E6B0E03C
:10005000ECEDF1E002C005900D92A837B107D9F799
:1000600020E0A8E7B0E001C01D92AD3BB207E1F788
:1000700002D0B2C0C5CF8DE490E06AD02FE78AE10C
:1000800096E0215080409040E1F700C0000080E6FB
:1000900090E083D086E290E08ED02FE38DE093E075
:1000A000215080409040E1F700C00000F0CF1F9247
:1000B0000F920FB60F9211242F938F939F93EF936C
:1000C000FF938BB12CB18871E0917A00EF5FEF71F3
:1000D00090917900E91739F0E0937A00F0E0E35865
:1000E000FF4F208301C082E090917800892B80939C
:1000F0007800FF91EF919F918F912F910F900FBEFC
:100100000F901F9018951F920F920FB60F92112407
:100110008F939F93EF93FF9390917C0080917B004E
:10012000981761F0E0917B00EF5FEF71E0937B0047
:10013000F0E0E356FF4F80818CB901C05598FF91E4
:10014000EF919F918F910F900FBE0F901F90189578
:1001500010927C0010927B0010927A00109279002D
:1001600099231CF422E02BB99F7790BD89B988E9C7
:100170008AB986E880BD089520917C002F5F2F7199
:1001800090917B002917E1F3E22FF0E0E356FF4F57
:10019000808320937C00559A0895CF93DF93EC01E0
:1001A0008881882329F02196E7DF89918111FCCF8E
:1001B000DF91CF910895CF93DF93EC012196FC015D
:1001C0008491882331F0D8DFFE018491219681113A
:0C01D000FACFDF91CF910895F894FFCF93
:1001DC00537472696E672073746F72656420696EF4
:0801EC00205352414D0A0000AE
:00000001FF
