:1000000012C019C018C017C016C015C014C013C044
:1000100012C011C010C00FC00EC00DC00CC00BC06C
:100020000AC009C008C011241FBECFE5D4E0DEBF5E
:10003000CDBF2AD07DC0E4CF89B990BD88E18AB90F
:1000400086E880BD08955D9BFECF8CB90895CF935F
:10005000DF93EC018881882329F02196F4DF8991D0
:100060008111FCCF8DE0EFDF8AE0EDDFDF91CF91F2
:100070000895389A3A9A87E886B90895369A369953
:10008000FECF84B195B10895CF93DF9300D000D017
:10009000CDB7DEB784E390E0CFDFEBDF80E090E028
:1000A000EDDF4AE050E0BE016F5F7F4F04D0CE012C
:1000B0000196CDDFF3CF4532510518F4423008F0F8
:1000C00004C0FB011082CB010895BB274A3031F4F4
:1000D000992322F4BDE2909581959F4F01C0BB27E3
:1000E000FB015527AA27880F991FAA1FA41710F0F4
:1000F000A41B83955051B9F7A05DAA3308F0A95D00
:10010000A193009779F7B111B1931192CB0100C07F
:10011000DC01FC01672F71917723E1F7329704C06E
:100120007C916D9370836291AE17BF07C8F30895F9
:04013000F894FFCF71
:00000001FF
