S0110000626C696E6B2D6C65642E73726563A1
S113000012C019C018C017C016C015C014C013C040
S113001012C011C010C00FC00EC00DC00CC00BC068
S11300200AC009C008C011241FBECFE5D4E0DEBF5A
S1130030CDBF02D02FC0E4CF80EC81BB80E282BB75
S1130040859911C0969A979887EA91E60197F1F7F6
S113005000C00000979A969887EA91E60197F1F715
S113006000C00000EDCF969A97989FE926E881E0BA
S1130070915020408040E1F700C00000979A969884
S11300809FE926E881E0915020408040E1F700C0DC
S10B00900000D6CFF894FFCF65
S9030000FC
